{
  "_format": "hh-sol-artifact-1",
  "contractName": "MyToken",
  "sourceName": "contracts/MyToken.sol",
  "abi": [
    {
      "inputs": [],
      "stateMutability": "nonpayable",
      "type": "constructor"
    },
    {
      "anonymous": false,
      "inputs": [
        {
          "indexed": true,
          "internalType": "address",
          "name": "owner",
          "type": "address"
        },
        {
          "indexed": true,
          "internalType": "address",
          "name": "approved",
          "type": "address"
        },
        {
          "indexed": true,
          "internalType": "uint256",
          "name": "tokenId",
          "type": "uint256"
        }
      ],
      "name": "Approval",
      "type": "event"
    },
    {
      "anonymous": false,
      "inputs": [
        {
          "indexed": true,
          "internalType": "address",
          "name": "owner",
          "type": "address"
        },
        {
          "indexed": true,
          "internalType": "address",
          "name": "operator",
          "type": "address"
        },
        {
          "indexed": false,
          "internalType": "bool",
          "name": "approved",
          "type": "bool"
        }
      ],
      "name": "ApprovalForAll",
      "type": "event"
    },
    {
      "anonymous": false,
      "inputs": [
        {
          "indexed": false,
          "internalType": "address",
          "name": "sender",
          "type": "address"
        },
        {
          "indexed": false,
          "internalType": "uint256",
          "name": "tokenId",
          "type": "uint256"
        }
      ],
      "name": "CustomNFTMinted",
      "type": "event"
    },
    {
      "anonymous": false,
      "inputs": [
        {
          "indexed": true,
          "internalType": "bytes32",
          "name": "role",
          "type": "bytes32"
        },
        {
          "indexed": true,
          "internalType": "bytes32",
          "name": "previousAdminRole",
          "type": "bytes32"
        },
        {
          "indexed": true,
          "internalType": "bytes32",
          "name": "newAdminRole",
          "type": "bytes32"
        }
      ],
      "name": "RoleAdminChanged",
      "type": "event"
    },
    {
      "anonymous": false,
      "inputs": [
        {
          "indexed": true,
          "internalType": "bytes32",
          "name": "role",
          "type": "bytes32"
        },
        {
          "indexed": true,
          "internalType": "address",
          "name": "account",
          "type": "address"
        },
        {
          "indexed": true,
          "internalType": "address",
          "name": "sender",
          "type": "address"
        }
      ],
      "name": "RoleGranted",
      "type": "event"
    },
    {
      "anonymous": false,
      "inputs": [
        {
          "indexed": true,
          "internalType": "bytes32",
          "name": "role",
          "type": "bytes32"
        },
        {
          "indexed": true,
          "internalType": "address",
          "name": "account",
          "type": "address"
        },
        {
          "indexed": true,
          "internalType": "address",
          "name": "sender",
          "type": "address"
        }
      ],
      "name": "RoleRevoked",
      "type": "event"
    },
    {
      "anonymous": false,
      "inputs": [
        {
          "indexed": true,
          "internalType": "address",
          "name": "from",
          "type": "address"
        },
        {
          "indexed": true,
          "internalType": "address",
          "name": "to",
          "type": "address"
        },
        {
          "indexed": true,
          "internalType": "uint256",
          "name": "tokenId",
          "type": "uint256"
        }
      ],
      "name": "Transfer",
      "type": "event"
    },
    {
      "inputs": [],
      "name": "DEFAULT_ADMIN_ROLE",
      "outputs": [
        {
          "internalType": "bytes32",
          "name": "",
          "type": "bytes32"
        }
      ],
      "stateMutability": "view",
      "type": "function"
    },
    {
      "inputs": [],
      "name": "MINTER_ROLE",
      "outputs": [
        {
          "internalType": "bytes32",
          "name": "",
          "type": "bytes32"
        }
      ],
      "stateMutability": "view",
      "type": "function"
    },
    {
      "inputs": [
        {
          "internalType": "address",
          "name": "to",
          "type": "address"
        },
        {
          "internalType": "uint256",
          "name": "tokenId",
          "type": "uint256"
        }
      ],
      "name": "approve",
      "outputs": [],
      "stateMutability": "nonpayable",
      "type": "function"
    },
    {
      "inputs": [
        {
          "internalType": "address",
          "name": "owner",
          "type": "address"
        }
      ],
      "name": "balanceOf",
      "outputs": [
        {
          "internalType": "uint256",
          "name": "",
          "type": "uint256"
        }
      ],
      "stateMutability": "view",
      "type": "function"
    },
    {
      "inputs": [
        {
          "internalType": "uint256",
          "name": "tokenId",
          "type": "uint256"
        }
      ],
      "name": "getApproved",
      "outputs": [
        {
          "internalType": "address",
          "name": "",
          "type": "address"
        }
      ],
      "stateMutability": "view",
      "type": "function"
    },
    {
      "inputs": [
        {
          "internalType": "bytes32",
          "name": "role",
          "type": "bytes32"
        }
      ],
      "name": "getRoleAdmin",
      "outputs": [
        {
          "internalType": "bytes32",
          "name": "",
          "type": "bytes32"
        }
      ],
      "stateMutability": "view",
      "type": "function"
    },
    {
      "inputs": [
        {
          "internalType": "bytes32",
          "name": "role",
          "type": "bytes32"
        },
        {
          "internalType": "address",
          "name": "account",
          "type": "address"
        }
      ],
      "name": "grantRole",
      "outputs": [],
      "stateMutability": "nonpayable",
      "type": "function"
    },
    {
      "inputs": [
        {
          "internalType": "bytes32",
          "name": "role",
          "type": "bytes32"
        },
        {
          "internalType": "address",
          "name": "account",
          "type": "address"
        }
      ],
      "name": "hasRole",
      "outputs": [
        {
          "internalType": "bool",
          "name": "",
          "type": "bool"
        }
      ],
      "stateMutability": "view",
      "type": "function"
    },
    {
      "inputs": [
        {
          "internalType": "address",
          "name": "owner",
          "type": "address"
        },
        {
          "internalType": "address",
          "name": "operator",
          "type": "address"
        }
      ],
      "name": "isApprovedForAll",
      "outputs": [
        {
          "internalType": "bool",
          "name": "",
          "type": "bool"
        }
      ],
      "stateMutability": "view",
      "type": "function"
    },
    {
      "inputs": [
        {
          "internalType": "string",
          "name": "uri",
          "type": "string"
        }
      ],
      "name": "isContentOwned",
      "outputs": [
        {
          "internalType": "bool",
          "name": "",
          "type": "bool"
        }
      ],
      "stateMutability": "view",
      "type": "function"
    },
    {
      "inputs": [],
      "name": "name",
      "outputs": [
        {
          "internalType": "string",
          "name": "",
          "type": "string"
        }
      ],
      "stateMutability": "view",
      "type": "function"
    },
    {
      "inputs": [
        {
          "internalType": "uint256",
          "name": "tokenId",
          "type": "uint256"
        }
      ],
      "name": "ownerOf",
      "outputs": [
        {
          "internalType": "address",
          "name": "",
          "type": "address"
        }
      ],
      "stateMutability": "view",
      "type": "function"
    },
    {
      "inputs": [
        {
          "internalType": "bytes32",
          "name": "role",
          "type": "bytes32"
        },
        {
          "internalType": "address",
          "name": "account",
          "type": "address"
        }
      ],
      "name": "renounceRole",
      "outputs": [],
      "stateMutability": "nonpayable",
      "type": "function"
    },
    {
      "inputs": [
        {
          "internalType": "bytes32",
          "name": "role",
          "type": "bytes32"
        },
        {
          "internalType": "address",
          "name": "account",
          "type": "address"
        }
      ],
      "name": "revokeRole",
      "outputs": [],
      "stateMutability": "nonpayable",
      "type": "function"
    },
    {
      "inputs": [
        {
          "internalType": "address",
          "name": "to",
          "type": "address"
        },
        {
          "internalType": "string",
          "name": "uri",
          "type": "string"
        }
      ],
      "name": "safeMint",
      "outputs": [],
      "stateMutability": "nonpayable",
      "type": "function"
    },
    {
      "inputs": [
        {
          "internalType": "address",
          "name": "from",
          "type": "address"
        },
        {
          "internalType": "address",
          "name": "to",
          "type": "address"
        },
        {
          "internalType": "uint256",
          "name": "tokenId",
          "type": "uint256"
        }
      ],
      "name": "safeTransferFrom",
      "outputs": [],
      "stateMutability": "nonpayable",
      "type": "function"
    },
    {
      "inputs": [
        {
          "internalType": "address",
          "name": "from",
          "type": "address"
        },
        {
          "internalType": "address",
          "name": "to",
          "type": "address"
        },
        {
          "internalType": "uint256",
          "name": "tokenId",
          "type": "uint256"
        },
        {
          "internalType": "bytes",
          "name": "_data",
          "type": "bytes"
        }
      ],
      "name": "safeTransferFrom",
      "outputs": [],
      "stateMutability": "nonpayable",
      "type": "function"
    },
    {
      "inputs": [
        {
          "internalType": "address",
          "name": "operator",
          "type": "address"
        },
        {
          "internalType": "bool",
          "name": "approved",
          "type": "bool"
        }
      ],
      "name": "setApprovalForAll",
      "outputs": [],
      "stateMutability": "nonpayable",
      "type": "function"
    },
    {
      "inputs": [
        {
          "internalType": "bytes4",
          "name": "interfaceId",
          "type": "bytes4"
        }
      ],
      "name": "supportsInterface",
      "outputs": [
        {
          "internalType": "bool",
          "name": "",
          "type": "bool"
        }
      ],
      "stateMutability": "view",
      "type": "function"
    },
    {
      "inputs": [],
      "name": "symbol",
      "outputs": [
        {
          "internalType": "string",
          "name": "",
          "type": "string"
        }
      ],
      "stateMutability": "view",
      "type": "function"
    },
    {
      "inputs": [
        {
          "internalType": "uint256",
          "name": "tokenId",
          "type": "uint256"
        }
      ],
      "name": "tokenURI",
      "outputs": [
        {
          "internalType": "string",
          "name": "",
          "type": "string"
        }
      ],
      "stateMutability": "view",
      "type": "function"
    },
    {
      "inputs": [
        {
          "internalType": "address",
          "name": "from",
          "type": "address"
        },
        {
          "internalType": "address",
          "name": "to",
          "type": "address"
        },
        {
          "internalType": "uint256",
          "name": "tokenId",
          "type": "uint256"
        }
      ],
      "name": "transferFrom",
      "outputs": [],
      "stateMutability": "nonpayable",
      "type": "function"
    }
  ],
  "bytecode": "0x60806040523480156200001157600080fd5b506040518060400160405280600b81526020017f43657274696669634554480000000000000000000000000000000000000000008152506040518060400160405280600581526020017f434552544900000000000000000000000000000000000000000000000000000081525081600090805190602001906200009692919062000264565b508060019080519060200190620000af92919062000264565b505050620000c76000801b33620000ff60201b60201c565b620000f97f9f2df0fed2c77648de5860a4cc508cd0818c85b8b8a1ab4ceeef8d981c8956a633620000ff60201b60201c565b62000379565b620001118282620001f160201b60201c565b620001ed5760016007600084815260200190815260200160002060000160008373ffffffffffffffffffffffffffffffffffffffff1673ffffffffffffffffffffffffffffffffffffffff16815260200190815260200160002060006101000a81548160ff021916908315150217905550620001926200025c60201b60201c565b73ffffffffffffffffffffffffffffffffffffffff168173ffffffffffffffffffffffffffffffffffffffff16837f2f8788117e7eff1d82e926ec794901d17c78024a50270940304540a733656f0d60405160405180910390a45b5050565b60006007600084815260200190815260200160002060000160008373ffffffffffffffffffffffffffffffffffffffff1673ffffffffffffffffffffffffffffffffffffffff16815260200190815260200160002060009054906101000a900460ff16905092915050565b600033905090565b828054620002729062000314565b90600052602060002090601f016020900481019282620002965760008555620002e2565b82601f10620002b157805160ff1916838001178555620002e2565b82800160010185558215620002e2579182015b82811115620002e1578251825591602001919060010190620002c4565b5b509050620002f19190620002f5565b5090565b5b8082111562000310576000816000905550600101620002f6565b5090565b600060028204905060018216806200032d57607f821691505b602082108114156200034457620003436200034a565b5b50919050565b7f4e487b7100000000000000000000000000000000000000000000000000000000600052602260045260246000fd5b613a4080620003896000396000f3fe608060405234801561001057600080fd5b50600436106101425760003560e01c806391d14854116100b8578063b88d4fde1161007c578063b88d4fde14610399578063c87b56dd146103b5578063d204c45e146103e5578063d539139314610401578063d547741f1461041f578063e985e9c51461043b57610142565b806391d14854146102e157806395d89b41146103115780639f1cabc61461032f578063a217fddf1461035f578063a22cb4651461037d57610142565b8063248a9ca31161010a578063248a9ca3146101fd5780632f2ff15d1461022d57806336568abe1461024957806342842e0e146102655780636352211e1461028157806370a08231146102b157610142565b806301ffc9a71461014757806306fdde0314610177578063081812fc14610195578063095ea7b3146101c557806323b872dd146101e1575b600080fd5b610161600480360381019061015c9190612761565b61046b565b60405161016e9190612ce0565b60405180910390f35b61017f61047d565b60405161018c9190612d16565b60405180910390f35b6101af60048036038101906101aa91906127f4565b61050f565b6040516101bc9190612c50565b60405180910390f35b6101df60048036038101906101da91906126c0565b610594565b005b6101fb60048036038101906101f69190612566565b6106ac565b005b610217600480360381019061021291906126fc565b61070c565b6040516102249190612cfb565b60405180910390f35b61024760048036038101906102429190612725565b61072c565b005b610263600480360381019061025e9190612725565b610755565b005b61027f600480360381019061027a9190612566565b6107d8565b005b61029b600480360381019061029691906127f4565b6107f8565b6040516102a89190612c50565b60405180910390f35b6102cb60048036038101906102c69190612501565b6108aa565b6040516102d89190612f98565b60405180910390f35b6102fb60048036038101906102f69190612725565b610962565b6040516103089190612ce0565b60405180910390f35b6103196109cd565b6040516103269190612d16565b60405180910390f35b610349600480360381019061034491906127b3565b610a5f565b6040516103569190612ce0565b60405180910390f35b610367610a94565b6040516103749190612cfb565b60405180910390f35b61039760048036038101906103929190612630565b610a9b565b005b6103b360048036038101906103ae91906125b5565b610ab1565b005b6103cf60048036038101906103ca91906127f4565b610b13565b6040516103dc9190612d16565b60405180910390f35b6103ff60048036038101906103fa919061266c565b610b25565b005b610409610c42565b6040516104169190612cfb565b60405180910390f35b61043960048036038101906104349190612725565b610c66565b005b6104556004803603810190610450919061252a565b610c8f565b6040516104629190612ce0565b60405180910390f35b600061047682610d23565b9050919050565b60606000805461048c9061327c565b80601f01602080910402602001604051908101604052809291908181526020018280546104b89061327c565b80156105055780601f106104da57610100808354040283529160200191610505565b820191906000526020600020905b8154815290600101906020018083116104e857829003601f168201915b5050505050905090565b600061051a82610d9d565b610559576040517f08c379a000000000000000000000000000000000000000000000000000000000815260040161055090612ed8565b60405180910390fd5b6004600083815260200190815260200160002060009054906101000a900473ffffffffffffffffffffffffffffffffffffffff169050919050565b600061059f826107f8565b90508073ffffffffffffffffffffffffffffffffffffffff168373ffffffffffffffffffffffffffffffffffffffff161415610610576040517f08c379a000000000000000000000000000000000000000000000000000000000815260040161060790612f18565b60405180910390fd5b8073ffffffffffffffffffffffffffffffffffffffff1661062f610e09565b73ffffffffffffffffffffffffffffffffffffffff16148061065e575061065d81610658610e09565b610c8f565b5b61069d576040517f08c379a000000000000000000000000000000000000000000000000000000000815260040161069490612e18565b60405180910390fd5b6106a78383610e11565b505050565b6106bd6106b7610e09565b82610eca565b6106fc576040517f08c379a00000000000000000000000000000000000000000000000000000000081526004016106f390612f38565b60405180910390fd5b610707838383610fa8565b505050565b600060076000838152602001908152602001600020600101549050919050565b6107358261070c565b61074681610741610e09565b61120f565b61075083836112ac565b505050565b61075d610e09565b73ffffffffffffffffffffffffffffffffffffffff168173ffffffffffffffffffffffffffffffffffffffff16146107ca576040517f08c379a00000000000000000000000000000000000000000000000000000000081526004016107c190612f78565b60405180910390fd5b6107d4828261138d565b5050565b6107f383838360405180602001604052806000815250610ab1565b505050565b6000806002600084815260200190815260200160002060009054906101000a900473ffffffffffffffffffffffffffffffffffffffff169050600073ffffffffffffffffffffffffffffffffffffffff168173ffffffffffffffffffffffffffffffffffffffff1614156108a1576040517f08c379a000000000000000000000000000000000000000000000000000000000815260040161089890612e58565b60405180910390fd5b80915050919050565b60008073ffffffffffffffffffffffffffffffffffffffff168273ffffffffffffffffffffffffffffffffffffffff16141561091b576040517f08c379a000000000000000000000000000000000000000000000000000000000815260040161091290612e38565b60405180910390fd5b600360008373ffffffffffffffffffffffffffffffffffffffff1673ffffffffffffffffffffffffffffffffffffffff168152602001908152602001600020549050919050565b60006007600084815260200190815260200160002060000160008373ffffffffffffffffffffffffffffffffffffffff1673ffffffffffffffffffffffffffffffffffffffff16815260200190815260200160002060009054906101000a900460ff16905092915050565b6060600180546109dc9061327c565b80601f0160208091040260200160405190810160405280929190818152602001828054610a089061327c565b8015610a555780601f10610a2a57610100808354040283529160200191610a55565b820191906000526020600020905b815481529060010190602001808311610a3857829003601f168201915b5050505050905090565b6000600982604051610a719190612bdb565b908152602001604051809103902060009054906101000a900460ff169050919050565b6000801b81565b610aad610aa6610e09565b838361146f565b5050565b610ac2610abc610e09565b83610eca565b610b01576040517f08c379a0000000000000000000000000000000000000000000000000000000008152600401610af890612f38565b60405180910390fd5b610b0d848484846115dc565b50505050565b6060610b1e82611638565b9050919050565b7f9f2df0fed2c77648de5860a4cc508cd0818c85b8b8a1ab4ceeef8d981c8956a6610b5781610b52610e09565b61120f565b610b6082610a5f565b15610ba0576040517f08c379a0000000000000000000000000000000000000000000000000000000008152600401610b9790612f58565b60405180910390fd5b6000610bac600861178a565b9050610bb86008611798565b610bc284826117ae565b610bcc81846117cc565b6001600984604051610bde9190612bdb565b908152602001604051809103902060006101000a81548160ff0219169083151502179055507f8629c6ca6849491f3ecb39d619f14488dd754ea04b5ded8337c862614c2d8c923382604051610c34929190612cb7565b60405180910390a150505050565b7f9f2df0fed2c77648de5860a4cc508cd0818c85b8b8a1ab4ceeef8d981c8956a681565b610c6f8261070c565b610c8081610c7b610e09565b61120f565b610c8a838361138d565b505050565b6000600560008473ffffffffffffffffffffffffffffffffffffffff1673ffffffffffffffffffffffffffffffffffffffff16815260200190815260200160002060008373ffffffffffffffffffffffffffffffffffffffff1673ffffffffffffffffffffffffffffffffffffffff16815260200190815260200160002060009054906101000a900460ff16905092915050565b60007f7965db0b000000000000000000000000000000000000000000000000000000007bffffffffffffffffffffffffffffffffffffffffffffffffffffffff1916827bffffffffffffffffffffffffffffffffffffffffffffffffffffffff19161480610d965750610d9582611840565b5b9050919050565b60008073ffffffffffffffffffffffffffffffffffffffff166002600084815260200190815260200160002060009054906101000a900473ffffffffffffffffffffffffffffffffffffffff1673ffffffffffffffffffffffffffffffffffffffff1614159050919050565b600033905090565b816004600083815260200190815260200160002060006101000a81548173ffffffffffffffffffffffffffffffffffffffff021916908373ffffffffffffffffffffffffffffffffffffffff160217905550808273ffffffffffffffffffffffffffffffffffffffff16610e84836107f8565b73ffffffffffffffffffffffffffffffffffffffff167f8c5be1e5ebec7d5bd14f71427d1e84f3dd0314c0f7b2291e5b200ac8c7c3b92560405160405180910390a45050565b6000610ed582610d9d565b610f14576040517f08c379a0000000000000000000000000000000000000000000000000000000008152600401610f0b90612df8565b60405180910390fd5b6000610f1f836107f8565b90508073ffffffffffffffffffffffffffffffffffffffff168473ffffffffffffffffffffffffffffffffffffffff161480610f8e57508373ffffffffffffffffffffffffffffffffffffffff16610f768461050f565b73ffffffffffffffffffffffffffffffffffffffff16145b80610f9f5750610f9e8185610c8f565b5b91505092915050565b8273ffffffffffffffffffffffffffffffffffffffff16610fc8826107f8565b73ffffffffffffffffffffffffffffffffffffffff161461101e576040517f08c379a000000000000000000000000000000000000000000000000000000000815260040161101590612d78565b60405180910390fd5b600073ffffffffffffffffffffffffffffffffffffffff168273ffffffffffffffffffffffffffffffffffffffff16141561108e576040517f08c379a000000000000000000000000000000000000000000000000000000000815260040161108590612db8565b60405180910390fd5b611099838383611922565b6110a4600082610e11565b6001600360008573ffffffffffffffffffffffffffffffffffffffff1673ffffffffffffffffffffffffffffffffffffffff16815260200190815260200160002060008282546110f4919061315e565b925050819055506001600360008473ffffffffffffffffffffffffffffffffffffffff1673ffffffffffffffffffffffffffffffffffffffff168152602001908152602001600020600082825461114b919061307d565b92505081905550816002600083815260200190815260200160002060006101000a81548173ffffffffffffffffffffffffffffffffffffffff021916908373ffffffffffffffffffffffffffffffffffffffff160217905550808273ffffffffffffffffffffffffffffffffffffffff168473ffffffffffffffffffffffffffffffffffffffff167fddf252ad1be2c89b69c2b068fc378daa952ba7f163c4a11628f55a4df523b3ef60405160405180910390a461120a838383611927565b505050565b6112198282610962565b6112a85761123e8173ffffffffffffffffffffffffffffffffffffffff16601461192c565b61124c8360001c602061192c565b60405160200161125d929190612c16565b6040516020818303038152906040526040517f08c379a000000000000000000000000000000000000000000000000000000000815260040161129f9190612d16565b60405180910390fd5b5050565b6112b68282610962565b6113895760016007600084815260200190815260200160002060000160008373ffffffffffffffffffffffffffffffffffffffff1673ffffffffffffffffffffffffffffffffffffffff16815260200190815260200160002060006101000a81548160ff02191690831515021790555061132e610e09565b73ffffffffffffffffffffffffffffffffffffffff168173ffffffffffffffffffffffffffffffffffffffff16837f2f8788117e7eff1d82e926ec794901d17c78024a50270940304540a733656f0d60405160405180910390a45b5050565b6113978282610962565b1561146b5760006007600084815260200190815260200160002060000160008373ffffffffffffffffffffffffffffffffffffffff1673ffffffffffffffffffffffffffffffffffffffff16815260200190815260200160002060006101000a81548160ff021916908315150217905550611410610e09565b73ffffffffffffffffffffffffffffffffffffffff168173ffffffffffffffffffffffffffffffffffffffff16837ff6391f5c32d9c69d2a47ea670b442974b53935d1edc7fd64eb21e047a839171b60405160405180910390a45b5050565b8173ffffffffffffffffffffffffffffffffffffffff168373ffffffffffffffffffffffffffffffffffffffff1614156114de576040517f08c379a00000000000000000000000000000000000000000000000000000000081526004016114d590612dd8565b60405180910390fd5b80600560008573ffffffffffffffffffffffffffffffffffffffff1673ffffffffffffffffffffffffffffffffffffffff16815260200190815260200160002060008473ffffffffffffffffffffffffffffffffffffffff1673ffffffffffffffffffffffffffffffffffffffff16815260200190815260200160002060006101000a81548160ff0219169083151502179055508173ffffffffffffffffffffffffffffffffffffffff168373ffffffffffffffffffffffffffffffffffffffff167f17307eab39ab6107e8899845ad3d59bd9653f200f220920489ca2b5937696c31836040516115cf9190612ce0565b60405180910390a3505050565b6115e7848484610fa8565b6115f384848484611c26565b611632576040517f08c379a000000000000000000000000000000000000000000000000000000000815260040161162990612d58565b60405180910390fd5b50505050565b606061164382610d9d565b611682576040517f08c379a000000000000000000000000000000000000000000000000000000000815260040161167990612eb8565b60405180910390fd5b60006006600084815260200190815260200160002080546116a29061327c565b80601f01602080910402602001604051908101604052809291908181526020018280546116ce9061327c565b801561171b5780601f106116f05761010080835404028352916020019161171b565b820191906000526020600020905b8154815290600101906020018083116116fe57829003601f168201915b50505050509050600061172c611dbd565b9050600081511415611742578192505050611785565b60008251111561177757808260405160200161175f929190612bf2565b60405160208183030381529060405292505050611785565b61178084611dfa565b925050505b919050565b600081600001549050919050565b6001816000016000828254019250508190555050565b6117c8828260405180602001604052806000815250611ea1565b5050565b6117d582610d9d565b611814576040517f08c379a000000000000000000000000000000000000000000000000000000000815260040161180b90612e78565b60405180910390fd5b8060066000848152602001908152602001600020908051906020019061183b929190612310565b505050565b60007f80ac58cd000000000000000000000000000000000000000000000000000000007bffffffffffffffffffffffffffffffffffffffffffffffffffffffff1916827bffffffffffffffffffffffffffffffffffffffffffffffffffffffff1916148061190b57507f5b5e139f000000000000000000000000000000000000000000000000000000007bffffffffffffffffffffffffffffffffffffffffffffffffffffffff1916827bffffffffffffffffffffffffffffffffffffffffffffffffffffffff1916145b8061191b575061191a82611efc565b5b9050919050565b505050565b505050565b60606000600283600261193f9190613104565b611949919061307d565b67ffffffffffffffff811115611988577f4e487b7100000000000000000000000000000000000000000000000000000000600052604160045260246000fd5b6040519080825280601f01601f1916602001820160405280156119ba5781602001600182028036833780820191505090505b5090507f300000000000000000000000000000000000000000000000000000000000000081600081518110611a18577f4e487b7100000000000000000000000000000000000000000000000000000000600052603260045260246000fd5b60200101907effffffffffffffffffffffffffffffffffffffffffffffffffffffffffffff1916908160001a9053507f780000000000000000000000000000000000000000000000000000000000000081600181518110611aa2577f4e487b7100000000000000000000000000000000000000000000000000000000600052603260045260246000fd5b60200101907effffffffffffffffffffffffffffffffffffffffffffffffffffffffffffff1916908160001a90535060006001846002611ae29190613104565b611aec919061307d565b90505b6001811115611bd8577f3031323334353637383961626364656600000000000000000000000000000000600f861660108110611b54577f4e487b7100000000000000000000000000000000000000000000000000000000600052603260045260246000fd5b1a60f81b828281518110611b91577f4e487b7100000000000000000000000000000000000000000000000000000000600052603260045260246000fd5b60200101907effffffffffffffffffffffffffffffffffffffffffffffffffffffffffffff1916908160001a905350600485901c945080611bd190613252565b9050611aef565b5060008414611c1c576040517f08c379a0000000000000000000000000000000000000000000000000000000008152600401611c1390612d38565b60405180910390fd5b8091505092915050565b6000611c478473ffffffffffffffffffffffffffffffffffffffff16611f66565b15611db0578373ffffffffffffffffffffffffffffffffffffffff1663150b7a02611c70610e09565b8786866040518563ffffffff1660e01b8152600401611c929493929190612c6b565b602060405180830381600087803b158015611cac57600080fd5b505af1925050508015611cdd57506040513d601f19601f82011682018060405250810190611cda919061278a565b60015b611d60573d8060008114611d0d576040519150601f19603f3d011682016040523d82523d6000602084013e611d12565b606091505b50600081511415611d58576040517f08c379a0000000000000000000000000000000000000000000000000000000008152600401611d4f90612d58565b60405180910390fd5b805181602001fd5b63150b7a0260e01b7bffffffffffffffffffffffffffffffffffffffffffffffffffffffff1916817bffffffffffffffffffffffffffffffffffffffffffffffffffffffff191614915050611db5565b600190505b949350505050565b60606040518060400160405280600781526020017f697066733a2f2f00000000000000000000000000000000000000000000000000815250905090565b6060611e0582610d9d565b611e44576040517f08c379a0000000000000000000000000000000000000000000000000000000008152600401611e3b90612ef8565b60405180910390fd5b6000611e4e611dbd565b90506000815111611e6e5760405180602001604052806000815250611e99565b80611e7884611f89565b604051602001611e89929190612bf2565b6040516020818303038152906040525b915050919050565b611eab8383612136565b611eb86000848484611c26565b611ef7576040517f08c379a0000000000000000000000000000000000000000000000000000000008152600401611eee90612d58565b60405180910390fd5b505050565b60007f01ffc9a7000000000000000000000000000000000000000000000000000000007bffffffffffffffffffffffffffffffffffffffffffffffffffffffff1916827bffffffffffffffffffffffffffffffffffffffffffffffffffffffff1916149050919050565b6000808273ffffffffffffffffffffffffffffffffffffffff163b119050919050565b60606000821415611fd1576040518060400160405280600181526020017f30000000000000000000000000000000000000000000000000000000000000008152509050612131565b600082905060005b60008214612003578080611fec906132df565b915050600a82611ffc91906130d3565b9150611fd9565b60008167ffffffffffffffff811115612045577f4e487b7100000000000000000000000000000000000000000000000000000000600052604160045260246000fd5b6040519080825280601f01601f1916602001820160405280156120775781602001600182028036833780820191505090505b5090505b6000851461212a57600182612090919061315e565b9150600a8561209f9190613328565b60306120ab919061307d565b60f81b8183815181106120e7577f4e487b7100000000000000000000000000000000000000000000000000000000600052603260045260246000fd5b60200101907effffffffffffffffffffffffffffffffffffffffffffffffffffffffffffff1916908160001a905350600a8561212391906130d3565b945061207b565b8093505050505b919050565b600073ffffffffffffffffffffffffffffffffffffffff168273ffffffffffffffffffffffffffffffffffffffff1614156121a6576040517f08c379a000000000000000000000000000000000000000000000000000000000815260040161219d90612e98565b60405180910390fd5b6121af81610d9d565b156121ef576040517f08c379a00000000000000000000000000000000000000000000000000000000081526004016121e690612d98565b60405180910390fd5b6121fb60008383611922565b6001600360008473ffffffffffffffffffffffffffffffffffffffff1673ffffffffffffffffffffffffffffffffffffffff168152602001908152602001600020600082825461224b919061307d565b92505081905550816002600083815260200190815260200160002060006101000a81548173ffffffffffffffffffffffffffffffffffffffff021916908373ffffffffffffffffffffffffffffffffffffffff160217905550808273ffffffffffffffffffffffffffffffffffffffff16600073ffffffffffffffffffffffffffffffffffffffff167fddf252ad1be2c89b69c2b068fc378daa952ba7f163c4a11628f55a4df523b3ef60405160405180910390a461230c60008383611927565b5050565b82805461231c9061327c565b90600052602060002090601f01602090048101928261233e5760008555612385565b82601f1061235757805160ff1916838001178555612385565b82800160010185558215612385579182015b82811115612384578251825591602001919060010190612369565b5b5090506123929190612396565b5090565b5b808211156123af576000816000905550600101612397565b5090565b60006123c66123c184612fd8565b612fb3565b9050828152602081018484840111156123de57600080fd5b6123e9848285613210565b509392505050565b60006124046123ff84613009565b612fb3565b90508281526020810184848401111561241c57600080fd5b612427848285613210565b509392505050565b60008135905061243e81613997565b92915050565b600081359050612453816139ae565b92915050565b600081359050612468816139c5565b92915050565b60008135905061247d816139dc565b92915050565b600081519050612492816139dc565b92915050565b600082601f8301126124a957600080fd5b81356124b98482602086016123b3565b91505092915050565b600082601f8301126124d357600080fd5b81356124e38482602086016123f1565b91505092915050565b6000813590506124fb816139f3565b92915050565b60006020828403121561251357600080fd5b60006125218482850161242f565b91505092915050565b6000806040838503121561253d57600080fd5b600061254b8582860161242f565b925050602061255c8582860161242f565b9150509250929050565b60008060006060848603121561257b57600080fd5b60006125898682870161242f565b935050602061259a8682870161242f565b92505060406125ab868287016124ec565b9150509250925092565b600080600080608085870312156125cb57600080fd5b60006125d98782880161242f565b94505060206125ea8782880161242f565b93505060406125fb878288016124ec565b925050606085013567ffffffffffffffff81111561261857600080fd5b61262487828801612498565b91505092959194509250565b6000806040838503121561264357600080fd5b60006126518582860161242f565b925050602061266285828601612444565b9150509250929050565b6000806040838503121561267f57600080fd5b600061268d8582860161242f565b925050602083013567ffffffffffffffff8111156126aa57600080fd5b6126b6858286016124c2565b9150509250929050565b600080604083850312156126d357600080fd5b60006126e18582860161242f565b92505060206126f2858286016124ec565b9150509250929050565b60006020828403121561270e57600080fd5b600061271c84828501612459565b91505092915050565b6000806040838503121561273857600080fd5b600061274685828601612459565b92505060206127578582860161242f565b9150509250929050565b60006020828403121561277357600080fd5b60006127818482850161246e565b91505092915050565b60006020828403121561279c57600080fd5b60006127aa84828501612483565b91505092915050565b6000602082840312156127c557600080fd5b600082013567ffffffffffffffff8111156127df57600080fd5b6127eb848285016124c2565b91505092915050565b60006020828403121561280657600080fd5b6000612814848285016124ec565b91505092915050565b61282681613192565b82525050565b612835816131a4565b82525050565b612844816131b0565b82525050565b60006128558261303a565b61285f8185613050565b935061286f81856020860161321f565b61287881613415565b840191505092915050565b600061288e82613045565b6128988185613061565b93506128a881856020860161321f565b6128b181613415565b840191505092915050565b60006128c782613045565b6128d18185613072565b93506128e181856020860161321f565b80840191505092915050565b60006128fa602083613061565b915061290582613426565b602082019050919050565b600061291d603283613061565b91506129288261344f565b604082019050919050565b6000612940602583613061565b915061294b8261349e565b604082019050919050565b6000612963601c83613061565b915061296e826134ed565b602082019050919050565b6000612986602483613061565b915061299182613516565b604082019050919050565b60006129a9601983613061565b91506129b482613565565b602082019050919050565b60006129cc602c83613061565b91506129d78261358e565b604082019050919050565b60006129ef603883613061565b91506129fa826135dd565b604082019050919050565b6000612a12602a83613061565b9150612a1d8261362c565b604082019050919050565b6000612a35602983613061565b9150612a408261367b565b604082019050919050565b6000612a58602e83613061565b9150612a63826136ca565b604082019050919050565b6000612a7b602083613061565b9150612a8682613719565b602082019050919050565b6000612a9e603183613061565b9150612aa982613742565b604082019050919050565b6000612ac1602c83613061565b9150612acc82613791565b604082019050919050565b6000612ae4602f83613061565b9150612aef826137e0565b604082019050919050565b6000612b07602183613061565b9150612b128261382f565b604082019050919050565b6000612b2a603183613061565b9150612b358261387e565b604082019050919050565b6000612b4d601783613072565b9150612b58826138cd565b601782019050919050565b6000612b70602083613061565b9150612b7b826138f6565b602082019050919050565b6000612b93601183613072565b9150612b9e8261391f565b601182019050919050565b6000612bb6602f83613061565b9150612bc182613948565b604082019050919050565b612bd581613206565b82525050565b6000612be782846128bc565b915081905092915050565b6000612bfe82856128bc565b9150612c0a82846128bc565b91508190509392505050565b6000612c2182612b40565b9150612c2d82856128bc565b9150612c3882612b86565b9150612c4482846128bc565b91508190509392505050565b6000602082019050612c65600083018461281d565b92915050565b6000608082019050612c80600083018761281d565b612c8d602083018661281d565b612c9a6040830185612bcc565b8181036060830152612cac818461284a565b905095945050505050565b6000604082019050612ccc600083018561281d565b612cd96020830184612bcc565b9392505050565b6000602082019050612cf5600083018461282c565b92915050565b6000602082019050612d10600083018461283b565b92915050565b60006020820190508181036000830152612d308184612883565b905092915050565b60006020820190508181036000830152612d51816128ed565b9050919050565b60006020820190508181036000830152612d7181612910565b9050919050565b60006020820190508181036000830152612d9181612933565b9050919050565b60006020820190508181036000830152612db181612956565b9050919050565b60006020820190508181036000830152612dd181612979565b9050919050565b60006020820190508181036000830152612df18161299c565b9050919050565b60006020820190508181036000830152612e11816129bf565b9050919050565b60006020820190508181036000830152612e31816129e2565b9050919050565b60006020820190508181036000830152612e5181612a05565b9050919050565b60006020820190508181036000830152612e7181612a28565b9050919050565b60006020820190508181036000830152612e9181612a4b565b9050919050565b60006020820190508181036000830152612eb181612a6e565b9050919050565b60006020820190508181036000830152612ed181612a91565b9050919050565b60006020820190508181036000830152612ef181612ab4565b9050919050565b60006020820190508181036000830152612f1181612ad7565b9050919050565b60006020820190508181036000830152612f3181612afa565b9050919050565b60006020820190508181036000830152612f5181612b1d565b9050919050565b60006020820190508181036000830152612f7181612b63565b9050919050565b60006020820190508181036000830152612f9181612ba9565b9050919050565b6000602082019050612fad6000830184612bcc565b92915050565b6000612fbd612fce565b9050612fc982826132ae565b919050565b6000604051905090565b600067ffffffffffffffff821115612ff357612ff26133e6565b5b612ffc82613415565b9050602081019050919050565b600067ffffffffffffffff821115613024576130236133e6565b5b61302d82613415565b9050602081019050919050565b600081519050919050565b600081519050919050565b600082825260208201905092915050565b600082825260208201905092915050565b600081905092915050565b600061308882613206565b915061309383613206565b9250827fffffffffffffffffffffffffffffffffffffffffffffffffffffffffffffffff038211156130c8576130c7613359565b5b828201905092915050565b60006130de82613206565b91506130e983613206565b9250826130f9576130f8613388565b5b828204905092915050565b600061310f82613206565b915061311a83613206565b9250817fffffffffffffffffffffffffffffffffffffffffffffffffffffffffffffffff048311821515161561315357613152613359565b5b828202905092915050565b600061316982613206565b915061317483613206565b92508282101561318757613186613359565b5b828203905092915050565b600061319d826131e6565b9050919050565b60008115159050919050565b6000819050919050565b60007fffffffff0000000000000000000000000000000000000000000000000000000082169050919050565b600073ffffffffffffffffffffffffffffffffffffffff82169050919050565b6000819050919050565b82818337600083830152505050565b60005b8381101561323d578082015181840152602081019050613222565b8381111561324c576000848401525b50505050565b600061325d82613206565b9150600082141561327157613270613359565b5b600182039050919050565b6000600282049050600182168061329457607f821691505b602082108114156132a8576132a76133b7565b5b50919050565b6132b782613415565b810181811067ffffffffffffffff821117156132d6576132d56133e6565b5b80604052505050565b60006132ea82613206565b91507fffffffffffffffffffffffffffffffffffffffffffffffffffffffffffffffff82141561331d5761331c613359565b5b600182019050919050565b600061333382613206565b915061333e83613206565b92508261334e5761334d613388565b5b828206905092915050565b7f4e487b7100000000000000000000000000000000000000000000000000000000600052601160045260246000fd5b7f4e487b7100000000000000000000000000000000000000000000000000000000600052601260045260246000fd5b7f4e487b7100000000000000000000000000000000000000000000000000000000600052602260045260246000fd5b7f4e487b7100000000000000000000000000000000000000000000000000000000600052604160045260246000fd5b6000601f19601f8301169050919050565b7f537472696e67733a20686578206c656e67746820696e73756666696369656e74600082015250565b7f4552433732313a207472616e7366657220746f206e6f6e20455243373231526560008201527f63656976657220696d706c656d656e7465720000000000000000000000000000602082015250565b7f4552433732313a207472616e736665722066726f6d20696e636f72726563742060008201527f6f776e6572000000000000000000000000000000000000000000000000000000602082015250565b7f4552433732313a20746f6b656e20616c7265616479206d696e74656400000000600082015250565b7f4552433732313a207472616e7366657220746f20746865207a65726f2061646460008201527f7265737300000000000000000000000000000000000000000000000000000000602082015250565b7f4552433732313a20617070726f766520746f2063616c6c657200000000000000600082015250565b7f4552433732313a206f70657261746f7220717565727920666f72206e6f6e657860008201527f697374656e7420746f6b656e0000000000000000000000000000000000000000602082015250565b7f4552433732313a20617070726f76652063616c6c6572206973206e6f74206f7760008201527f6e6572206e6f7220617070726f76656420666f7220616c6c0000000000000000602082015250565b7f4552433732313a2062616c616e636520717565727920666f7220746865207a6560008201527f726f206164647265737300000000000000000000000000000000000000000000602082015250565b7f4552433732313a206f776e657220717565727920666f72206e6f6e657869737460008201527f656e7420746f6b656e0000000000000000000000000000000000000000000000602082015250565b7f45524337323155524953746f726167653a2055524920736574206f66206e6f6e60008201527f6578697374656e7420746f6b656e000000000000000000000000000000000000602082015250565b7f4552433732313a206d696e7420746f20746865207a65726f2061646472657373600082015250565b7f45524337323155524953746f726167653a2055524920717565727920666f722060008201527f6e6f6e6578697374656e7420746f6b656e000000000000000000000000000000602082015250565b7f4552433732313a20617070726f76656420717565727920666f72206e6f6e657860008201527f697374656e7420746f6b656e0000000000000000000000000000000000000000602082015250565b7f4552433732314d657461646174613a2055524920717565727920666f72206e6f60008201527f6e6578697374656e7420746f6b656e0000000000000000000000000000000000602082015250565b7f4552433732313a20617070726f76616c20746f2063757272656e74206f776e6560008201527f7200000000000000000000000000000000000000000000000000000000000000602082015250565b7f4552433732313a207472616e736665722063616c6c6572206973206e6f74206f60008201527f776e6572206e6f7220617070726f766564000000000000000000000000000000602082015250565b7f416363657373436f6e74726f6c3a206163636f756e7420000000000000000000600082015250565b7f54686973204e46542068616420616c7265616479206265656e206d696e746564600082015250565b7f206973206d697373696e6720726f6c6520000000000000000000000000000000600082015250565b7f416363657373436f6e74726f6c3a2063616e206f6e6c792072656e6f756e636560008201527f20726f6c657320666f722073656c660000000000000000000000000000000000602082015250565b6139a081613192565b81146139ab57600080fd5b50565b6139b7816131a4565b81146139c257600080fd5b50565b6139ce816131b0565b81146139d957600080fd5b50565b6139e5816131ba565b81146139f057600080fd5b50565b6139fc81613206565b8114613a0757600080fd5b5056fea2646970667358221220c947833a2a8ec845af51545a46ccf29c7fa8bfca55458d9684099857b90e4ce364736f6c63430008040033",
  "linkReferences": {},
  "deployedLinkReferences": {}
}